:020000040000FA
:06000000F0EF0DF012000C
:020006001200E6
:0600080035EF0BF01200C1
:02000E00010AE5
:020010000000EE
:06001800B1EF0BF0120035
:02001E000200DE
:100020000E000000F601000004000000261C000085
:08003000800000004500000003
:080038000101770ECE6FCF6FBE
:10004000D06FD16FD26FD36FD46FD56F01010A0E0D
:10005000F76F12000101D8510101CE6F0101D95192
:100060000101CF6F0101DA510101D06F0101DB51B4
:100070000101D16F0101DC510101D26F0101DD519C
:100080000101D36F0101DE510101D46F0101DF5184
:100090000101D56F12009268AAEC0DF064EC05F036
:1000A000CBDF816A936A400E826EA40E946EC78C79
:1000B000030ED56ED58CD58EF294F28AF18ECF6A6E
:1000C000CE6AB10ECD6E9E909D80040EBD6E9D8455
:1000D000070ECA6ECB689E929D92D08EF1849F943B
:1000E0009F909F82F28CF28E1200D9CFE6FFE1CF73
:1000F000D9FF170EE1260C0EDB6A0D0EDB6ACBDF93
:10010000828282800101880EF86F130EF96FB90E9A
:10011000F36E120EF3CFDBFF900EE66E000EE66E6E
:1001200097EC05F0E552E552120EDB50E66EC2EC9C
:1001300005F0E552030EE66E90EC0DF0E552F3CFBC
:1001400014F0F4CF15F0040E0D6E0E6A14C008F012
:1001500015C009F0CCEC09F008C014F009C015F086
:1001600014C0CEF1130EE66E90EC0DF0E552F3CF15
:1001700014F0F4CF15F00C0EDBCFE9FFDB2A0D0EE7
:10018000DBCFEAFF01E3DB2A010ED890E936EA363D
:10019000E806FBE1000EE926010EEA2214C0EEFF9C
:1001A00015C0EDFF0C0EDBCF14F00D0EDBCF15F0FC
:1001B000640E145C000E155804E30C0EDB6A0D0E81
:1001C000DB6A880EE66E130EE66E43EC0DF0E55228
:1001D000E552F3CF14F0F4CF15F01450151001E0F0
:1001E000A9D78250010B166E176A1650171002E03D
:1001F000000E01D0010E146E156A1450E8B0828012
:10020000E8A082908250010B166E176A16501710E4
:1002100002E0000E01D0010E146E156A1450E8B011
:100220008282E8A082920A0EDB6A0B0EDB6A0E0E57
:10023000DB6A0F0EDB6A100EDB6A110EDB6A0A0E38
:10024000DBCF14F00B0EDBCF15F0640E145C000E48
:10025000155829E20A0EDBCFE9FF0B0EDBCFEAFFD0
:10026000010ED890E936EA36E806FBE1000EE926F1
:10027000010EEA22EECF14F0EFCF15F0166A176ADE
:10028000D9500E0FE96EDACFEAFF1450EE26155062
:10029000EE221650EE221750EE220A0EDB2A0B0E2B
:1002A00001E3DB2ACCD70A0EDBCF14F00B0EDBCF39
:1002B00015F0166A176AD9500E0FE96EDACFEAFF09
:1002C00014C00BF015C00CF016C00DF017C00EF0E6
:1002D000EECF06F0EECF07F0EECF08F0EFCF09F04B
:1002E000B6EC0DF009C0EDFF08C0EDFF07C0EDFF53
:1002F00006C0EFFF0E0EDBCF1CF00F0EDBCF1DF0A4
:10030000100EDBCF1EF0110EDBCF1FF01CC006F06D
:100310001DC007F01EC008F01FC009F05AEC08F01D
:1003200007C018F008C019F009C01AF00AC01BF085
:10033000430E0C6E1C0E0D6ECB0E0E6E3E0E0F6E2F
:1003400018C007F019C008F01AC009F01BC00AF065
:100350005FEC09F007C014F008C015F009C016F0F2
:100360000AC017F0330E0C6E930E0D6E880E0E6ED3
:10037000430E0F6E14C007F015C008F016C009F048
:1003800017C00AF075EC08F0130E07C0DBFF140E5F
:1003900008C0DBFF150E09C0DBFF160E0AC0DBFF2D
:1003A000130EDBCF14F0140EDBCF15F0150EDBCFE0
:1003B00016F0160EDBCF17F00C6A0D6AAA0E0E6E41
:1003C000420E0F6E14C007F015C008F016C009F0F9
:1003D00017C00AF051EC0AF0010A03E10101CF69EC
:1003E00002D00101CF6B146A156AAA0E166E420E76
:1003F000176E130EDBCF18F0140EDBCF19F0150EAD
:10040000DBCF1AF0160EDBCF1BF018C00CF019C0B2
:100410000DF01AC00EF01BC00FF014C007F015C08D
:1004200008F016C009F017C00AF075EC08F007C014
:10043000DEFF08C0DEFF09C0DEFF0AC0DDFFDD52BF
:10044000DD52076A086AC80E096E420E0A6E000E77
:10045000DFCF0CF0010EDBCF0DF0020EDBCF0EF084
:10046000030EDBCF0FF05FEC09F007C080F008C08F
:1004700081F009C082F00AC083F0D9CFE9FFDACF5A
:10048000EAFFEECF1CF0EECF1DF0EECF1EF0EFCF67
:100490001FF0CD0E0C6ECC0E0D6E4C0E0E6E3D0E82
:1004A0000F6E1CC007F01DC008F01EC009F01FC071
:1004B0000AF05FEC09F007C018F008C019F009C095
:1004C0001AF00AC01BF00C6A400E0D6E9C0E0E6EE8
:1004D000450E0F6E18C007F019C008F01AC009F0D9
:1004E0001BC00AF05FEC09F007C014F008C015F05B
:1004F00009C016F00AC017F014C00CF015C00DF0BA
:1005000016C00EF017C00FF084C007F085C008F0C9
:1005100086C009F087C00AF076EC08F007C084F0C6
:1005200008C085F009C086F00AC087F00C6A0D6A21
:100530006E0E0E6E430E0F6E84C007F085C008F07D
:1005400086C009F087C00AF048EC0AF0010A08E109
:100550000001846B856B6E0E866F430E876F19D01A
:100560000C6A0D6A6E0E0E6EC30E0F6E84C007F01D
:1005700085C008F086C009F087C00AF051EC0AF087
:10058000010A07E10001846B856B6E0E866FC30E56
:10059000876F186A196A1A6A1B6A130EDBCF20F07C
:1005A000140EDBCF21F0150EDBCF22F0160EDBCFC1
:1005B00023F0040EDBCF24F0050EDBCF25F0060E72
:1005C000DBCF26F0070EDBCF27F024C00CF025C0D0
:1005D0000DF026C00EF027C00FF020C007F021C09C
:1005E00008F022C009F023C00AF075EC08F007C03B
:1005F0001CF008C01DF009C01EF00AC01FF01CC08E
:100600000CF01DC00DF01EC00EF01FC00FF018C082
:1006100007F019C008F01AC009F01BC00AF05FEC1F
:1006200009F007C014F008C015F009C016F00AC0A0
:1006300017F00C6A400E0D6E9C0E0E6E450E0F6E7E
:1006400014C007F015C008F016C009F017C00AF072
:100650000CEC09F007C088F008C089F009C08AF0E6
:100660000AC08BF0D950130FE96EDACFEAFF040EFF
:10067000EECFDBFF050EEECFDBFF060EEECFDBFF8E
:10068000070EEECFDBFF80C007F081C008F082C00C
:1006900009F083C00AF019EC0AF0080E08C0DBFF6D
:1006A000090E09C0DBFF080EDBCF14F0090EDBCF0B
:1006B00015F0800ED8801456000E1556080E14C082
:1006C000DBFF090E15C0DBFF080EDBCF14F0090EAF
:1006D000DBCF15F00001800E151404E0080EDB6A74
:1006E000090EDB6A080EDBCF14F0090EDBCF15F024
:1006F000153404E21450EE08000E155407E2EE0E15
:10070000F36E080EF3CFDBFF090EDB6A080EDB5039
:10071000146E156AFF0ED8801456000E155614C0BC
:10072000D0F114C0D1F184C00CF085C00DF086C0AA
:100730000EF087C00FF080C007F081C008F082C0C3
:1007400009F083C00AF076EC08F019EC0AF0080E04
:1007500008C0DBFF090E09C0DBFF080EDBCF14F079
:10076000090EDBCF15F0800ED8801456000E1556FA
:10077000080E14C0DBFF090E15C0DBFF080EDBCF2F
:1007800014F0090EDBCF15F00001800E151404E003
:10079000080EDB6A090EDB6A080EDBCF14F0090EC7
:1007A000DBCF15F0153404E21450EE08000E15549A
:1007B00007E2EE0EF36E080EF3CFDBFF090EDB6AE5
:1007C000080EDB50146E156AFF0ED8801456000E0A
:1007D000155614C0D2F114C0D3F1130EDBCF14F0B0
:1007E000140EDBCF15F0150EDBCF16F0160EDBCF97
:1007F00017F00C6A0D6A0E6A0F6A14C007F015C074
:1008000008F016C009F017C00AF048EC0AF0010A17
:1008100051E1130EDBCF1CF0140EDBCF1DF0150ED3
:10082000DBCF1EF0160EDBCF1FF00C6A0D6A100E28
:100830000E6E410E0F6E1CC007F01DC008F01EC0EA
:1008400009F01FC00AF05FEC09F007C018F008C0FB
:1008500019F009C01AF00AC01BF00C6A0D6AA00E4C
:100860000E6E400E0F6E18C007F019C008F01AC0C7
:1008700009F01BC00AF00CEC09F007C014F008C026
:1008800015F009C016F00AC017F00C6A0D6A0E6A5E
:10089000420E0F6E14C007F015C008F016C009F024
:1008A00017C00AF076EC08F0F2EC09F0120E09C05D
:1008B000DBFF02D0120EDB6AA30EE66E000EE66EC0
:1008C00097EC05F0E552E552120EDB50E66EC2ECF5
:1008D00005F0E5520F0EE66E90EC0DF0E552F3CF09
:1008E00014F0F4CF15F0166A176A15AE02D0166828
:1008F00017680E0E14C0DBFF0F0E15C0DBFF100EC5
:1009000016C0DBFF110E17C0DBFF0E0EDBCF1CF095
:100910000F0EDBCF1DF0100EDBCF1EF0110EDBCF64
:100920001FF01CC006F01DC007F01EC008F01FC05D
:1009300009F05AEC08F007C018F008C019F009C017
:100940001AF00AC01BF0430E0C6E1C0E0D6ECB0E7F
:100950000E6E3E0E0F6E18C007F019C008F01AC0D8
:1009600009F01BC00AF05FEC09F007C014F008C0E2
:1009700015F009C016F00AC017F0330E0C6E930E76
:100980000D6E880E0E6E430E0F6E14C007F015C06C
:1009900008F016C009F017C00AF075EC08F0130E45
:1009A00007C0DBFF140E08C0DBFF150E09C0DBFF1C
:1009B000160E0AC0DBFF130EDBCF14F0140EDBCFD4
:1009C00015F0150EDBCF16F0160EDBCF17F00C6A04
:1009D0000D6A0E6A0F6A14C007F015C008F016C041
:1009E00009F017C00AF048EC0AF0010A51E1130EB1
:1009F000DBCF1CF0140EDBCF1DF0150EDBCF1EF08D
:100A0000160EDBCF1FF00C6A0D6A100E0E6E410E33
:100A10000F6E1CC007F01DC008F01EC009F01FC0FB
:100A20000AF05FEC09F007C018F008C019F009C01F
:100A30001AF00AC01BF00C6A0D6AA00E0E6E400E72
:100A40000F6E18C007F019C008F01AC009F01BC0DB
:100A50000AF00CEC09F007C014F008C015F009C04A
:100A600016F00AC017F00C6A0D6A0E6A420E0F6E7D
:100A700014C007F015C008F016C009F017C00AF03E
:100A800076EC08F0F2EC09F0120E09C0DBFF02D0A0
:100A9000120EDB6AB30EE66E000EE66E97EC05F002
:100AA000E552E552120EDB50E66EC2EC05F0E5525F
:100AB0009AEF00F0170EE15C02E2E16AE552E16EA6
:080AC000E552E7CFD9FF120057
:080AC800D9CFE6FFE1CFD9FF11
:100AD000020EE126240EAC6E900EAB6E190EAF6EB8
:100AE000AE50DE6EDD6A020EE15C02E2E16AE552C2
:100AF000E16EE552E7CFD9FF1200D9CFE6FFE1CF93
:100B0000D9FF9E50100B01E0010E146E156A1450AF
:100B1000151001E1F6D7FE0EDBCF14F0156A14BEF6
:100B200015681450AD6EE552E7CFD9FF1200D9CF4A
:100B3000E6FFE1CFD9FFFD0EDBCFE9FFFE0EDBCFF5
:100B4000EAFFEFCF14F0156A14BE156814501510A3
:100B500015E0FD0EDBCFE9FFFE0EDBCFEAFFEFCFA6
:100B600014F0156A14BE15681450E66EC6DFE5521F
:100B7000FD0EDB2AFE0E01E3DB2ADDD7E552E7CFCF
:100B8000D9FF1200D9CFE6FFE1CFD9FFE652FE0E22
:100B9000DB50DF6EDF50146E156A640E0D6E0E6A48
:100BA00014C008F015C009F0CCEC09F008C014F02E
:100BB00009C015F0FE0E14C0DBFFDBCF14F0300EC1
:100BC0001424E66E9ADFE552640E146E14C00EF023
:100BD000DFCF09F0FEEC0DF005C0DFFFDF50146E33
:100BE000156A0A0E0D6E0E6A14C008F015C009F0E1
:100BF000CCEC09F008C014F009C015F0FE0E14C0CA
:100C0000DBFFDBCF14F0300E1424E66E76DFE55206
:100C10000A0E146E14C00EF0DFCF09F0FEEC0DF0DA
:100C200005C0DFFFDFCF14F0300E1424E66E65DF61
:100C3000E552E552E552E7CFD9FF1200D9CFE6FFE2
:100C4000E1CFD9FFE652FE0EDBCF14F0300E1424B4
:100C5000DF6EDF50146E156A153404E21450390843
:100C6000000E155402E2070EDF26DF50E66E45DF68
:100C7000E552E552E552E7CFD9FF1200D9CFE6FFA2
:100C8000E1CFD9FFFE0EDB50146E156A040ED8902A
:100C900015321432E804FBE11450E66ECFDFE55262
:100CA000FE0EDBCF14F00F0E1414E66EC7DFE55214
:100CB000E552E7CFD9FF1200D9CFE6FFE1CFD9FF48
:100CC000FD0EDBCF14F0FE0EDBCF15F015C014F0D7
:100CD000156A1450E66ED2DFE552FF0EE76EFD0E88
:100CE000DBCF14F0FE0EDBCF15F0E7501416156ABB
:100CF0001450E66EC3DFE552E552E7CFD9FF12008C
:100D0000D9CFE6FFE1CFD9FFFE0EDBCF14F0156A95
:100D100014BE15680001800E151412E02D0EE66E4B
:100D2000ECDEE552FE0EDBCF14F0156A14BE15683A
:100D3000146C151E000E1522FE0E14C0DBFF04D02D
:100D40002B0EE66EDADEE552FE0EDBCF14F0156AEE
:100D500014BE15681450E66E15DFE552E552E7CF74
:100D6000D9FF12000D0EE66EC8DEE5520A0EE66EE1
:100D7000C4DEE5521200D9CFE6FFE1CFD9FFE6523B
:100D80009E50200B01E0010E146E156A14501510D0
:100D900027E0AB50020B01E0010E166E176A1650E9
:100DA00017100BE1AB50040B01E0010E186E196A2D
:100DB0001850191002E1000E01D0010E146E156AD0
:100DC0001450151005E0AB98AB88AE50DF6E08D01C
:100DD000AE50DF6EDF50E66E90DEE552DF5002D09F
:100DE000000E00D0E552E552E7CFD9FF1200D9CF6F
:100DF000E6FFE1CFD9FF020EE126010EDB6ABBDF81
:100E0000DF6EDFCF16F0176A16BE1768D89017503E
:100E100004E6300E165C000E17580EE3DFCF18F014
:100E2000196A18BE1968193404E218503908000EFE
:100E3000195402E3000E01D0010E146E156A14500D
:100E40001510DDE1DFCF14F0156A14BE1568300E01
:100E5000145E000E155A010E14C0DBFF0A0E146E4C
:100E6000010EDBCFE7FF1450E702010EF3CFDBFFEB
:100E700082DFDF6EDFCF16F0176A16BE1768D890D4
:100E8000175004E6300E165C000E17580EE3DFCF45
:100E900018F0196A18BE1968193404E21850390894
:100EA000000E195402E3000E01D0010E146E156AF3
:100EB00014501510DDE1DFCF14F0156A14BE15686B
:100EC000300E145E000E155A010EDBCFE7FF1450F2
:100ED000E726010EE7CFDBFFDB50146E020EE15C6C
:100EE00003E200D0E16AE552E16E1450E552E7CF2B
:100EF000D9FF1200D9CFE6FFE1CFD9FF020EE126DC
:100F0000010EDB6A0101FA6BFB6B35DFDF6EDFCFB1
:100F100018F0196A18BE1968D890195004E6300EF6
:100F2000185C000E19580EE3DFCF1AF01B6A1ABEC8
:100F30001B681B3404E21A503908000E1B5402E3EC
:100F4000000E01D0010E166E176A165017100AE037
:100F5000DFCF1CF01D6A1CBE1D682D0E1C1801E1A0
:100F60001D5002E1000E01D0010E146E156A1450DE
:100F70001510CBE1DFCF14F0156A14BE15682D0EE5
:100F8000141801E1155027E1010E0101FA6FFB6B06
:100F9000F2DEDF6EDFCF16F0176A16BE1768D89044
:100FA000175004E6300E165C000E17580EE3DFCF24
:100FB00018F0196A18BE1968193404E21850390873
:100FC000000E195402E3000E01D0010E146E156AD2
:100FD00014501510DDE1DFCF14F0156A14BE15684A
:100FE000300E145E000E155A010E14C0DBFF0A0EFF
:100FF000146E010EDBCFE7FF1450E702010EF3CFB2
:10100000DBFFB9DEDF6EDFCF16F0176A16BE17689A
:10101000D890175004E6300E165C000E17580EE3F9
:10102000DFCF18F0196A18BE1968193404E2185095
:101030003908000E195402E3000E01D0010E146E9F
:10104000156A14501510DDE1DFCF14F0156A14BED7
:101050001568300E145E000E155A010EDBCFE7FF47
:101060001450E726010EE7CFDBFF0101FA51FB1117
:101070000DE0010EDBCF14F0156A14BE1568146C78
:10108000151E000E1522010E14C0DBFF010EDBCF72
:1010900014F0156A14BE15681450146E020EE15C4B
:1010A00003E200D0E16AE552E16E1450E552E7CF69
:0410B000D9FF120052
:0C10B400019E0CD0019E09AE09D0066C14
:1010C000071E081E091EE86A072208220922018E4F
:1010D00009C003F008C002F007C013F006C012F008
:1010E0009E0E046E056ACBEF0AF00F7E016A07ECD4
:1010F0000BF01FEC0BF001B6AFEF0AF001A20AD023
:1011000001AA03D001BEAFEF0AF001A4BBEF0AF0C1
:10111000B8EF0AF001AA05D001ACBBEF0AF0B8EFB6
:101120000AF001A00AD001A808D001BE04D001A491
:1011300002D0C4EF0AF0C8EF0AF0126A056A0F5035
:101140000A5C116E10E307C013F008C002F009C07A
:1011500003F00AC010F00CC007F00DC008F00EC07C
:1011600009F0013A09D00CC013F00DC002F00EC016
:1011700003F00FC010F0116C019E01BC018E10C075
:1011800004F001B0F7EF0AF01A0E1160F7EF0AF061
:10119000046A0A6A01A408D0076C081E091E0A1E08
:1011A000E86A082209220A2201AC08D0136C021E48
:1011B000031E041EE86A022203220422066A115258
:1011C00007E00A340932083207320632112EF9D705
:1011D0000750132608500222095003220A50042205
:1011E00006C012F0019E04AE0BD0126C131E021E3C
:1011F000031E041EE86A1322022203220422018E27
:1012000004A006D0D8800332023213321232102AE0
:1012100010C004F0CBEF0AF0016A07EC0BF01FECF2
:101220000BF001B6AFEF0AF001A205D001BAAFEFA3
:101230000AF0B6EF0AF001BAC2EF0AF001A005D039
:1012400001B8AFEF0AF0C2EF0AF001B8B6EF0AF04A
:10125000056A7F0E0A24046EE86A05220F50045EB8
:10126000E86A055A1A0E106E0A6A126A136A026A4E
:10127000036A0C50075E0D50085A0E50095A000EB2
:101280000A5A09E70C5007260D5008220E50092271
:10129000000E0A2201D0128AD89007360836093685
:1012A0000A36D8901236133602360336102EE1D79E
:1012B000095008100710D8A4128ACBEF0AF0016A6F
:1012C00007EC0BF01FEC0BF001B6AFEF0AF001A238
:1012D00005D001B8AFEF0AF0B6EF0AF001AA05D0C9
:1012E00001B0AFEF0AF0B6EF0AF001B002D001A8EA
:1012F00002D0C2EF0AF0056A0F500A24046EE86AB1
:1013000005227E0E045EE86A055A126A136A026AB2
:10131000036A0E500902F4CF03F0F3CF02F00D5030
:101320000902F3501326F4500222000E03220E503D
:101330000802F3501326F4500222000E03220C5030
:101340000902F3501226F4501322000E0222032247
:101350000D500802F3501226F4501322000E022200
:1013600003220E500702F3501226F4501322000EEF
:10137000022203220C500802F4501226000E1322FF
:10138000022203220D500702F4501226000E1322EF
:1013900002220322CBEF0AF0006A0EAED5EF09F06D
:1013A0000D6C0E1EE86A0E22001E09AEDDEF09F07C
:1013B000086C091EE86A0922001EDAEC0DF009BE6D
:1013C000EDEF09F000AE000C086C091EE86A092276
:1013D000046C051EE86A0522000C00BEE4EF09F06B
:1013E0000188FF0C016A07EC0BF001B6FCEF09F075
:1013F00001A20AD001B403D07F0E096E19D0800E6D
:10140000096E16D0096A14D001B0FCD7870E0A60A5
:10141000F1D77E0E0A64F6D7860E0A5C04E0D890F7
:1014200009320A2AF9D701A403D0096C09AEEAD718
:101430001200016A07EC0BF001B623EF0AF001A2DB
:101440000ED001B405D07F0E096EFF0E086E1FD0BE
:10145000800E096E086A1BD0096A086A18D001B0AC
:10146000FBD78F0E0A60EDD77E0E0A64F5D78E0E7D
:101470000A5C05E0D890093208320A2AF8D701A49C
:1014800006D0086C091EE86A092209AEE5D71200E9
:101490005AEC0AF001B6000C01B0000C01B4000CCB
:1014A000010C5AEC0AF001B6000C01B0000C01A4CA
:1014B000000C010C016A07EC0BF01FEC0BF001B6FD
:1014C000120001AE08D001A004D001A802D0018012
:1014D0001200019012000F500A5C0BE10E50095CE3
:1014E00008E10D50085C05E10C50075C02E1018049
:1014F0001200D8A002D0018E10D00A500FC00AF0FE
:101500000F6E09500EC009F00E6E08500DC008F0A5
:101510000D6E07500CC007F00C6E0F500A5C10E007
:10152000FF0F09E0019001B403D001AE0184120065
:1015300001AE019412000F2AD8900E320D320C32F7
:101540000C50075E0D50085A0E50095A09BEEAD7D2
:10155000D8900736083609360A2EF8D7C8D77F0E36
:101560000A6EFF0E096E086E076E12007F0E01BE36
:10157000FF0E0A6E02D07F0E0A6E800E096E086A98
:10158000076AF3D701AE04D0800E0A6E096AF7D756
:101590000A6A096AF4D70350021013101210F8E017
:1015A00005BEF0D703BE0CD004500510EBE0D89078
:1015B00012361336023603360406D8A00506F2D7D3
:1015C0000550D4E10428D2E012AE11D07F0E1214DF
:1015D00002E113A00CD0132AE86A0222032207E3D7
:1015E000D880033202321332042A0428BFE00450A8
:1015F000C9E013C007F002C008F00334096E0430DC
:101600000A6E09320A9E01BE0A8EB5EF0AF009364B
:101610000A3602E30184017E06E101800A6A096A52
:10162000086A076A12000A2803E0D880093212000B
:10163000D890093202E101821200018612000E36B2
:101640000F3602E3018C017E06E101880F6A0E6A03
:101650000D6A0C6A12000F2803E0D8800E321200C7
:0A166000D8900E32EAE1018A120070
:06166A00DACFE4FFE2CF3D
:10167000DAFFE9CFE4FFEACFE4FFE6529E50020B27
:1016800001E0010E326E336A3250331008E001017E
:10169000C951326E336A321C8A169D929E92F25064
:1016A000040B01E0010E326E336A3250331051E008
:1016B0000101CD2B0101F851F91103E0F807000EEB
:1016C000F95B0101C851C96FCA51326E336A325099
:1016D000331002E0CA071ED0C851326E336A32504E
:1016E000331004E1010EC86FCB6B02D0C89FC8470E
:1016F000CB51326E336AD890335004E6070E325C19
:10170000000E335805E30101F7510101CA6FC86BA0
:10171000C8518A12C951326E336A3250331018E000
:10172000CC6ACB51EA6ACE0FE96E010EEA22EF5085
:10173000CB6ECB50326E336A333404E23250EE0853
:10174000000E335402E2EE0ECB6E9E929D82CB2BA6
:10175000F294E552E5CFEAFFE5CFE9FFE5CFDAFF06
:101760001100D8CFE4FFE0CFE4FFE46EDACFE4FF6E
:10177000E2CFDAFFE9CFE4FFEACFE4FFE652D9CFC8
:10178000E6FFE1CFD9FF020EE1269E50040B01E0F7
:10179000010E286E296A2850291001E1E6D0F29E38
:1017A000CE50DF6ECF50E76E010EE7CFDBFFBE50AD
:1017B000DE5C286EBF50DD58296E28C0DEFF29C0D0
:1017C000DDFF010EDB50CF6EDF50CE6EF28EBECF4E
:1017D000DEFFBFCFDDFFD9CFE9FFDACFEAFF010E91
:1017E0000F0B06E0EC52D890ED32EF32E806FAE14A
:1017F000DECF28F0DDCF29F0293404E22850E208BA
:10180000040E295475E20101CC51EA6FE5512C6EAA
:101810002D6AD8902D5004E6320E2C5C000E2D5807
:101820000CE3E5512E6E2F6A2F3404E22E50BE08D1
:10183000000E2F5402E3000E01D0010E2A6E2B6A17
:101840002A502B100CE0DECF30F0DDCF31F0D890F5
:10185000315004E6A00E305C0F0E315802E3000E4A
:1018600001D0010E286E296A285029102EE0EA5175
:10187000286E296A090E281801E1295015E1E15165
:10188000D86FE251D96FE351DA6FE451DB6FE55164
:10189000DC6FE651DD6FE751DE6FE851DF6FE95134
:1018A000E06F0101F66B10D00101010EF66F01012E
:1018B000EB51286E296AD890295004E6140E285C52
:1018C000000E295801E2EB2B10D00101010EF66F3A
:1018D0000101EB51286E296AD890295004E6140EB4
:1018E000285C000E295801E2EB2B0101CC6B3CD0A7
:1018F0000101CC51286E296AD890295004E6090EBE
:10190000285C000E295830E2010EDB50286E296A4F
:10191000010E281801E129501FE1DF50286E296AC5
:10192000293404E22850EE08000E295409E2CC5173
:10193000EA6AE10FE96E010EEA22EE0EEF6E0BD0BD
:10194000DF50E66ECC51EA6AE10FE96E010EEA2241
:10195000E552E750EF6E07D0CC51EA6AE10FE96E2D
:10196000010EEA22EF6ACC2B9E949E50010B286E4A
:10197000296A2850291006E00101EA6B0101010ED5
:10198000F66F9E90020EE15C02E2E16AE552E16EC2
:10199000E552E7CFD9FFE552E5CFEAFFE5CFE9FF12
:1019A000E5CFDAFFE550E5CFE0FFE5CFD8FF100047
:1019B0001E0EF66E000EF76E000EF86E01010900A5
:1019C000F550F16F0900F550F26F03E1F16701D0B6
:1019D0003DD00900F550EC6F0900F550ED6F09009E
:1019E000F550EE6F09000900F550E96E0900F55059
:1019F000EA6E090009000900F550EF6F0900F55083
:101A0000F06F09000900F6CFF3F1F7CFF4F1F8CF4A
:101A1000F5F1ECC1F6FFEDC1F7FFEEC1F8FF0101F2
:101A2000EF5302E1F05307E00900F550EE6EEF07C7
:101A3000F8E2F007F9D7F3C1F6FFF4C1F7FFF5C1FB
:0E1A4000F8FF0101F107000EF25BBFD71200A4
:021A4E00D9CFEE
:101A5000E6FFE1CFD9FFE652FE0EDB500101CD25B6
:101A6000DF6ECD51146E156ADF50166E176A165070
:101A7000141802E11750151801E0F3D7E552E552AA
:101A8000E7CFD9FF1200D9CFE6FFE1CFD9FF01019F
:101A9000F851F91104E0010EF36EF46A09D0FD0E5D
:101AA000DBCFF8F1FE0EDBCFF9F1F36AF46A00D078
:081AB000E552E7CFD9FF120057
:081AB800D9CFE6FFDACFE6FF0B
:101AC000E1CFD9FFE2CFDAFFC26AC16AC06AFC0E79
:101AD000DB407F0B3C0BC26EFB0EDB50C16EFC0E7D
:101AE000DB38F00B300BC112FD0EDB50800BC06EEB
:101AF000FD0EDB380F0B070BC012FD0EDB50040D83
:101B0000F350380BC012FC0EDBAE03D09E9C9D8CB4
:101B1000F28CC280E552E5CFDAFFE7CFD9FF1200A1
:101B2000D9CFE6FFE1CFD9FFFE0EDB50C26EC25027
:101B3000020B01E0010E146E156A1450151001E03D
:101B4000F6D7C3CFF3FFC4CFF4FF00D0E552E7CF01
:101B5000D9FF12000A0EE66E040EE66EDB0EE66E8C
:0C1B60005CEC0DF0E552E552E55212007D
:041B6C00056A046A98
:101B7000036A026A200EE76ED890063607360836EA
:101B8000093602360336043605360B50025C0C501B
:101B900003580D5004580E50055809E30B50025ECF
:101BA0000C50035A0D50045A0E50055A062AE72EBF
:041BB000E4D7120064
:0C1BB400056A046A100EE76ED89008362F
:101BC0000936043605360D50045C0E50055805E301
:101BD0000D50045E0E50055A082AE72EF0D7120069
:101BE00015EE00F025EE00F0F86A019CD8EC0CF040
:0C1BF00003EC00F075EC00F0FBD71200D5
:041BFC00056A080E60
:101C0000E76ED890093605360E50055C02E3056E86
:081C1000092AE72EF7D71200A4
:081C180000EE00F00F0EEE6A71
:061C2000EA62FDD712008C
:0A1C260000000000000000000000B4
:101C30000000000000000D0A536574706F696E7437
:101C40002064656720463A20000D0A54656D7031A6
:101C50002064656720463A20002020202054656DCE
:0B1C600070322064656720463A2000C7
:020000040030CA
:0100010002FC
:0100020019E4
:010003001EDE
:010005008179
:010006008178
:01000B00E014
:00000001FF
