:020000040000FA
:060000000CEF01F01200FC
:060020000CEF01F01200DC
:02002A000000D4
:04002C00D9CFE6FF43
:10003000E1CFD9FF030EE126DE6ADD6A020EC9CFE9
:10004000DBFFC968C7B005D0DF2A010E01E3DB2A58
:10005000F9D7020EC9CFDBFFDECF02F0DDCF03F010
:10006000033404E20250E808030E035402E2DE6A9D
:10007000DD6A020EDB50026E030EE15C03E200D08B
:10008000E16AE552E16E0250E552E7CFD9FF120076
:10009000D9CFE6FFE1CFD9FFC66A3F0EC716C688A3
:1000A00093929380949E93948A84FE0EDB50C612A2
:1000B000C68AE552E7CFD9FF1200D9CFE6FFE1CFDC
:1000C000D9FF050EE126020EE66EE2DFE552DE6A9A
:1000D000DD6ADECF02F0DDCF03F0D890035004E6F6
:1000E0000A0E025C000E035818E2090EF36E020EAF
:1000F000F3CFDBFF030EDB6A99DFE76E040EE7CF79
:10010000DBFF080EF36E020EF3CFDBFF030EDB6A9C
:10011000DF2A010E01E3DB2ADCD7050EE15C02E2F7
:0E012000E16AE552E16EE552E7CFD9FF120029
:02012E002A0E97
:10013000F66E000EF76E000EF86E00010900F55025
:10014000656F0900F550666F03E1656701D03DD02A
:100150000900F550606F0900F550616F0900F55016
:10016000626F09000900F550E96E0900F550EA6E6A
:10017000090009000900F550636F0900F550646F2C
:1001800009000900F6CF67F0F7CF68F0F8CF69F003
:1001900060C0F6FF61C0F7FF62C0F8FF0001635363
:1001A00002E1645307E00900F550EE6E6307F8E2E0
:1001B0006407F9D767C0F6FF68C0F7FF69C0F8FFAA
:0C01C00000016507000E665BBFD712004F
:0401CC00D9CFE6FFA2
:1001D000E1CFD9FF030EE12693948A840F0EC1125A
:1001E000010EDB6A020EDB6AE66E48EC00F0E552B7
:1001F00016EC00F0F350DF6E010EDB2A020E01E375
:10020000DB2AF6D7030EE15C02E2E16AE552E16E19
:08021000E552E7CFD9FF12000F
:0802180013EE00F023EE00F0EC
:10022000F86A019C97EC00F021EC01F0E6EC00F09C
:04023000FBD71200E6
:0C02340000EE00F00F0EEE6AEA62FDD74B
:020240001200AA
:020242001200A8
:00000001FF
