:020000040000FA
:100000000428000000000000A001A1018316FF23C6
:10001000900083010B281A308316850095019F01FB
:1000200081309900FF3095008113033083129900CD
:100030008512A001A00AA101A00A0319A10A2108A2
:10004000803ADF0085305F02DC3003192002031C98
:100050001C28051E3428191F2F28851D34284B30D5
:10006000A000A10105103C28B430A000A101051496
:1000700085193C2882303D288130831699008312EF
:10008000851620080319A103A003200A0319210AD9
:10009000031918284128000000000000000000009B
:1000A0000000000000000000000000000000000050
:1000B0000000000000000000000000000000000040
:1000C0000000000000000000000000000000000030
:1000D0000000000000000000000000000000000020
:02400E0094011B
:084000000300090007000300A2
:0207FE00FF3FBB
:00000001FF
