:020000040000FA
:06000000ACEF06F0120057
:020006001200E6
:060008000CEF03F01200F2
:02000E00010AE5
:020010000000EE
:0600180088EF03F0120066
:02001E000100DF
:0C0020000E000000AE0000000400000014
:04002C00D9CFE6FF43
:10003000E1CFD9FF020EE126240EAC6E900EAB6E1E
:10004000190EAF6EAE50DE6EDD6A020EE15C02E2AA
:10005000E16AE552E16EE552E7CFD9FF1200D9CF50
:10006000E6FFE1CFD9FF9E50100B01E0010E1A6EA2
:100070001B6A1A501B1001E1F6D7FE0EDBCF1AF0F7
:100080001B6A1ABE1B681A50AD6EE552E7CFD9FF46
:100090001200D9CFE6FFE1CFD9FFFD0EDBCFE9FF9C
:1000A000FE0EDBCFEAFFEFCF1AF01B6A1ABE1B6809
:1000B0001A501B1015E0FD0EDBCFE9FFFE0EDBCF63
:1000C000EAFFEFCF1AF01B6A1ABE1B681A50E66EE1
:1000D000C6DFE552FD0EDB2AFE0E01E3DB2ADDD78B
:1000E000E552E7CFD9FF1200D9CFE6FFE1CFD9FF24
:1000F000E652FE0EDB50DF6EDF501A6E1B6A640E96
:100100000D6E0E6A1AC008F01BC009F04AEC06F02A
:1001100008C01AF009C01BF0FE0E1AC0DBFFDBCFCF
:100120001AF0300E1A24E66E9ADFE552640E1A6E4B
:100130001AC00EF0DFCF09F0BAEC06F005C0DFFF01
:10014000DF501A6E1B6A0A0E0D6E0E6A1AC008F096
:100150001BC009F04AEC06F008C01AF009C01BF0F9
:10016000FE0E1AC0DBFFDBCF1AF0300E1A24E66E4B
:1001700076DFE5520A0E1A6E1AC00EF0DFCF09F0D4
:10018000BAEC06F005C0DFFFDFCF1AF0300E1A24FC
:10019000E66E65DFE552E552E552E7CFD9FF120082
:1001A000D9CFE6FFE1CFD9FFE652FE0EDBCF1AF042
:1001B000300E1A24DF6EDF501A6E1B6A1B3404E205
:1001C0001A503908000E1B5402E2070EDF26DF50DA
:1001D000E66E45DFE552E552E552E7CFD9FF120062
:1001E000D9CFE6FFE1CFD9FFFE0EDB501A6E1B6AB6
:1001F000040ED8901B321A32E804FBE11A50E66E66
:10020000CFDFE552FE0EDBCF1AF00F0E1A14E66EAA
:10021000C7DFE552E552E7CFD9FF1200D9CFE6FF9D
:10022000E1CFD9FFFD0EDBCF1AF0FE0EDBCF1BF0C6
:100230001BC01AF01B6A1A50E66ED2DFE552FF0EA1
:10024000E76EFD0EDBCF1AF0FE0EDBCF1BF0E750A2
:100250001A161B6A1A50E66EC3DFE552E552E7CF65
:10026000D9FF1200D9CFE6FFE1CFD9FFFE0EDBCFD9
:100270001AF01B6A1ABE1B680001800E1B1412E0E4
:100280002D0EE66EECDEE552FE0EDBCF1AF01B6A99
:100290001ABE1B681A6C1B1E000E1B22FE0E1AC013
:1002A000DBFF04D02B0EE66EDADEE552FE0EDBCF6E
:1002B0001AF01B6A1ABE1B681A50E66E15DFE5526B
:1002C000E552E7CFD9FF12000D0EE66EC8DEE5520B
:1002D0000A0EE66EC4DEE5521200D9CFE6FFE1CF8A
:1002E000D9FFE6529E50200B01E0010E1A6E1B6AE8
:1002F0001A501B1027E0AB50020B01E0010E1C6EE0
:100300001D6A1C501D100BE1AB50040B01E0010EE7
:100310001E6E1F6A1E501F1002E1000E01D0010E5A
:100320001A6E1B6A1A501B1005E0AB98AB88AE50D2
:10033000DF6E08D0AE50DF6EDF50E66E90DEE55225
:10034000DF5002D0000E00D0E552E552E7CFD9FFD2
:100350001200D9CFE6FFE1CFD9FF020EE126010E50
:10036000DB6ABBDFDF6EDFCF1CF01D6A1CBE1D68C1
:10037000D8901D5004E6300E1C5C000E1D580EE394
:10038000DFCF1EF01F6A1EBE1F681F3404E21E501E
:100390003908000E1F5402E3000E01D0010E1A6E40
:1003A0001B6A1A501B10DDE1DFCF1AF01B6A1ABE60
:1003B0001B68300E1A5E000E1B5A010E1AC0DBFFBE
:1003C0000A0E1A6E010EDBCFE7FF1A50E702010E8C
:1003D000F3CFDBFF82DFDF6EDFCF1CF01D6A1CBEB8
:1003E0001D68D8901D5004E6300E1C5C000E1D5890
:1003F0000EE3DFCF1EF01F6A1EBE1F681F3404E22B
:100400001E503908000E1F5402E3000E01D0010EE9
:100410001A6E1B6A1A501B10DDE1DFCF1AF01B6A3F
:100420001ABE1B68300E1A5E000E1B5A010EDBCF7F
:10043000E7FF1A50E726010EE7CFDBFFDB501A6E0D
:10044000020EE15C03E200D0E16AE552E16E1A506F
:10045000E552E7CFD9FF1200D9CFE6FFE1CFD9FFB0
:10046000020EE126010EDB6A0001B26BB36B35DFD1
:10047000DF6EDFCF1EF01F6A1EBE1F68D8901F50B0
:1004800004E6300E1E5C000E1F580EE3DFCF20F096
:10049000216A20BE2168213404E220503908000E70
:1004A000215402E3000E01D0010E1C6E1D6A1C5087
:1004B0001D100AE0DFCF22F0236A22BE23682D0E32
:1004C000221801E1235002E1000E01D0010E1A6E44
:1004D0001B6A1A501B10CBE1DFCF1AF01B6A1ABE41
:1004E0001B682D0E1A1801E11B5027E1010E0001B7
:1004F000B26FB36BF2DEDF6EDFCF1CF01D6A1CBE85
:100500001D68D8901D5004E6300E1C5C000E1D586E
:100510000EE3DFCF1EF01F6A1EBE1F681F3404E209
:100520001E503908000E1F5402E3000E01D0010EC8
:100530001A6E1B6A1A501B10DDE1DFCF1AF01B6A1E
:100540001ABE1B68300E1A5E000E1B5A010E1AC02E
:10055000DBFF0A0E1A6E010EDBCFE7FF1A50E7022F
:10056000010EF3CFDBFFB9DEDF6EDFCF1CF01D6ABB
:100570001CBE1D68D8901D5004E6300E1C5C000E99
:100580001D580EE3DFCF1EF01F6A1EBE1F681F340A
:1005900004E21E503908000E1F5402E3000E01D081
:1005A000010E1A6E1B6A1A501B10DDE1DFCF1AF024
:1005B0001B6A1ABE1B68300E1A5E000E1B5A010E13
:1005C000DBCFE7FF1A50E726010EE7CFDBFF000184
:1005D000B251B3110DE0010EDBCF1AF01B6A1ABE47
:1005E0001B681A6C1B1E000E1B22010E1AC0DBFFBB
:1005F000010EDBCF1AF01B6A1ABE1B681A501A6E66
:10060000020EE15C03E200D0E16AE552E16E1A50AD
:08061000E552E7CFD9FF12000B
:08061800DACFE4FFE2CFDAFFC4
:10062000E9CFE4FFEACFE4FFE6529E50020B01E07F
:10063000010E246E256A2450251008E00001815126
:10064000246E256A241C8A169D929E92F250040BF9
:1006500001E0010E246E256A2450251051E00001AE
:10066000852B0001B051B11103E0B007000EB15B62
:1006700000018051816F8251246E256A245025101B
:1006800002E082071ED08051246E256A2450251076
:1006900004E1010E806F836B02D0809F80478351FD
:1006A000246E256AD890255004E6070E245C000EBF
:1006B000255805E30001AF510001826F806B805126
:1006C0008A128151246E256A2450251018E0CC6AC4
:1006D0008351EA6A860FE96E000EEA22EF50CB6E74
:1006E000CB50246E256A253404E22450EE08000E17
:1006F000255402E2EE0ECB6E9E929D82832BF294E5
:10070000E552E5CFEAFFE5CFE9FFE5CFDAFF1100DB
:10071000D8CFE4FFE0CFE4FFE46EDACFE4FFE2CF2E
:10072000DAFFE9CFE4FFEACFE4FFE652D9CFE6FFF4
:10073000E1CFD9FF020EE1269E50040B01E0010E2D
:10074000106E116A1050111001E1E6D0F29ECE50E9
:10075000DF6ECF50E76E010EE7CFDBFFBE50DE5CF1
:10076000106EBF50DD58116E10C0DEFF11C0DDFFEE
:10077000010EDB50CF6EDF50CE6EF28EBECFDEFFAD
:10078000BFCFDDFFD9CFE9FFDACFEAFF010E0F0BB4
:1007900006E0EC52D890ED32EF32E806FAE1DECF17
:1007A00010F0DDCF11F0113404E21050E208040E15
:1007B000115475E200018451A26F9D51146E156AA7
:1007C000D890155004E6320E145C000E15580CE358
:1007D0009D51166E176A173404E21650BE08000EBB
:1007E000175402E3000E01D0010E126E136A12506C
:1007F00013100CE0DECF18F0DDCF19F0D8901950AF
:1008000004E6A00E185C0F0E195802E3000E01D08A
:10081000010E106E116A105011102EE0A251106ED0
:10082000116A090E101801E1115015E19951906FEC
:100830009A51916F9B51926F9C51936F9D51946F00
:100840009E51956F9F51966FA051976FA151986FD0
:100850000001AE6B10D00001010EAE6F0001A3517C
:10086000106E116AD890115004E6140E105C000E40
:10087000115801E2A32B10D00001010EAE6F000150
:10088000A351106E116AD890115004E6140E105C3A
:10089000000E115801E2A32B0001846B3CD0000133
:1008A0008451106E116AD890115004E6090E105C44
:1008B000000E115830E2010EDB50106E116A010E6D
:1008C000101801E111501FE1DF50106E116A113450
:1008D00004E21050EE08000E115409E28451EA6A55
:1008E000990FE96E000EEA22EE0EEF6E0BD0DF508C
:1008F000E66E8451EA6A990FE96E000EEA22E5522B
:10090000E750EF6E07D08451EA6A990FE96E000E46
:10091000EA22EF6A842B9E949E50010B106E116A9E
:100920001050111006E00001A26B0001010EAE6F25
:100930009E90020EE15C02E2E16AE552E16EE55250
:10094000E7CFD9FFE552E5CFEAFFE5CFE9FFE5CFF5
:0E095000DAFFE550E5CFE0FFE5CFD8FF10005D
:02095E00000196
:10096000770E866F876F886B896FEE0E8A6F8B6F3D
:10097000770E8C6F8D6F00010A0EAF6F12000001B1
:1009800090510001866F000191510001876F0001B5
:1009900092510001886F000193510001896F00019D
:1009A000945100018A6F0001955100018B6F000185
:1009B000965100018C6F0001975100018D6F12005C
:1009C00092688AEC06F016EC00F0C9DF816A936A3F
:1009D000400E826EA40E946EC78C030ED56ED58C1D
:1009E000D58EF294F28AF18ECF6ACE6AB10ECD6EB8
:1009F0009E909D80040EBD6E9D84070ECA6ECB68CE
:100A00009E929D92D08EF1849F949F909F82F28CB3
:100A1000F28E1200D9CFE6FFE1CFD9FF030EE12617
:100A2000770EDF6EDE52DD6E010EF36E020EF3CF37
:100A3000DBFFC6DF82928290030EE66E70EC06F05A
:100A4000E552F3CF1AF0F4CF1BF0040E0D6E0E6AD0
:100A50001AC008F01BC009F04AEC06F008C01AF0F2
:100A600009C01BF0010E1AC0DBFFDB501A6E1B6AB7
:100A70001B3404E21A50EE08000E1B5403E2DE524F
:100A8000EE0EDD6E010EDB500001866F010EDB50B5
:100A90001A6E1B6AEE0ED8801A56000E1B561AC02C
:100AA00087F0080EE66EE1EC05F0E552DF501A6EB5
:100AB0001B6AEE0E1A1801E11B5013E1020EDB68EF
:100AC0008250010B1C6E1D6A1C501D1002E0000EAE
:100AD00001D0010E1A6E1B6A1A50E8B08280E8A09D
:100AE0008290DF501A6E1B6A1A501B1005E1010E2E
:100AF000F36E020EF3CFDBFF020EDBCF1AF01B6AA0
:100B00001ABE1B681A50DF26DF5000018B6F94D786
:100B1000030EE15C02E2E16AE552E16EE552E7CFE5
:040B2000D9FF1200E7
:0C0B24001E0EF66E000EF76E000EF86E4E
:100B300000010900F550A96F0900F550AA6F03E103
:100B4000A96701D03DD00900F550A46F0900F55008
:100B5000A56F0900F550A66F09000900F550E96E70
:100B60000900F550EA6E090009000900F550A76F69
:100B70000900F550A86F09000900F6CFABF0F7CFD8
:100B8000ACF0F8CFADF0A4C0F6FFA5C0F7FFA6C04B
:100B9000F8FF0001A75302E1A85307E00900F55050
:100BA000EE6EA707F8E2A807F9D7ABC0F6FFACC016
:100BB000F7FFADC0F8FF0001A907000EAA5BBFD781
:020BC000120021
:0E0BC200D9CFE6FFE1CFD9FFE652FE0EDB50A1
:100BD00000018525DF6E85511A6E1B6ADF501C6E81
:100BE0001D6A1C501A1802E11D501B1801E0F3D7B2
:100BF000E552E552E7CFD9FF1200D9CFE6FFE1CFAA
:100C0000D9FF0001B051B11104E0010EF36EF46A96
:100C100009D0FD0EDBCFB0F0FE0EDBCFB1F0F36AF2
:0C0C2000F46A00D0E552E7CFD9FF1200C3
:040C2C00D9CFE6FF37
:100C3000DACFE6FFE1CFD9FFE2CFDAFFC26AC16ABD
:100C4000C06AFC0EDB407F0B3C0BC26EFB0EDB5020
:100C5000C16EFC0EDB38F00B300BC112FD0EDB5009
:100C6000800BC06EFD0EDB380F0B070BC012FD0EA4
:100C7000DB50040DF350380BC012FC0EDBAE03D07A
:100C80009E9C9D8CF28CC280E552E5CFDAFFE7CFC7
:040C9000D9FF120076
:0C0C9400006A0EAE53EF06F00D6C0E1E51
:100CA000E86A0E22001E09AE5BEF06F0086C091E12
:100CB000E86A0922001E96EC06F009BE6BEF06F00A
:100CC00000AE000C086C091EE86A0922046C051EBF
:100CD000E86A0522000C00BE62EF06F00188FF0CF6
:100CE000D9CFE6FFE1CFD9FFFE0EDB50C26EC25076
:100CF000020B01E0010E1A6E1B6A1A501B1001E074
:100D0000F6D7C3CFF3FFC4CFF4FF00D0E552E7CF4F
:100D1000D9FF12000A0EE66E040EE66EDB0EE66EDA
:0C0D200016EC06F0E552E552E552120018
:040D2C00056A046AE6
:100D3000100EE76ED89008360936043605360D5089
:100D4000045C0E50055805E30D50045E0E50055A24
:080D5000082AE72EF0D712007B
:080D580015EE00F025EE00F09D
:100D6000F86A019C92EC05F003EC00F00AEC05F047
:040D7000FBD712009B
:0C0D7400056A080EE76ED89009360536B7
:100D80000E50055C02E3056E092AE72EF7D7120024
:0E0D900000EE00F00F0EEE6AEA62FDD71200D0
:020000040030CA
:0100010002FC
:0100020019E4
:010003001EDE
:010005008179
:010006008178
:01000B00E014
:00000001FF
